{
  "_format": "hh-sol-artifact-1",
  "contractName": "Proxy",
  "sourceName": "contracts/Proxy.sol",
  "abi": [
    {
      "type": "function",
      "name": "DEFAULT_ADMIN_ROLE",
      "inputs": [],
      "outputs": [
        {
          "name": "",
          "type": "bytes32",
          "internalType": "bytes32"
        }
      ],
      "stateMutability": "view"
    },
    {
      "type": "function",
      "name": "_get_transaction",
      "inputs": [
        {
          "name": "tid",
          "type": "uint8",
          "internalType": "uint8"
        }
      ],
      "outputs": [
        {
          "name": "",
          "type": "address",
          "internalType": "contract Transaction"
        }
      ],
      "stateMutability": "view"
    },
    {
      "type": "function",
      "name": "_is_local",
      "inputs": [
        {
          "name": "l1address",
          "type": "uint256",
          "internalType": "uint256"
        }
      ],
      "outputs": [
        {
          "name": "",
          "type": "bool",
          "internalType": "bool"
        }
      ],
      "stateMutability": "view"
    },
    {
      "type": "function",
      "name": "_l1_address",
      "inputs": [
        {
          "name": "account",
          "type": "address",
          "internalType": "address"
        }
      ],
      "outputs": [
        {
          "name": "",
          "type": "uint256",
          "internalType": "uint256"
        }
      ],
      "stateMutability": "view"
    },
    {
      "type": "function",
      "name": "_tokens",
      "inputs": [
        {
          "name": "",
          "type": "uint256",
          "internalType": "uint256"
        }
      ],
      "outputs": [
        {
          "name": "token_uid",
          "type": "uint256",
          "internalType": "uint256"
        }
      ],
      "stateMutability": "view"
    },
    {
      "type": "function",
      "name": "addToken",
      "inputs": [
        {
          "name": "token",
          "type": "uint256",
          "internalType": "uint256"
        }
      ],
      "outputs": [
        {
          "name": "",
          "type": "uint32",
          "internalType": "uint32"
        }
      ],
      "stateMutability": "nonpayable"
    },
    {
      "type": "function",
      "name": "addTransaction",
      "inputs": [
        {
          "name": "txaddr",
          "type": "address",
          "internalType": "address"
        },
        {
          "name": "sideEffect",
          "type": "bool",
          "internalType": "bool"
        }
      ],
      "outputs": [
        {
          "name": "",
          "type": "uint256",
          "internalType": "uint256"
        }
      ],
      "stateMutability": "nonpayable"
    },
    {
      "type": "function",
      "name": "allTokens",
      "inputs": [],
      "outputs": [
        {
          "name": "",
          "type": "tuple[]",
          "internalType": "struct TokenInfo[]",
          "components": [
            {
              "name": "token_uid",
              "type": "uint256",
              "internalType": "uint256"
            }
          ]
        }
      ],
      "stateMutability": "view"
    },
    {
      "type": "function",
      "name": "getProxyInfo",
      "inputs": [],
      "outputs": [
        {
          "name": "",
          "type": "tuple",
          "internalType": "struct ProxyInfo",
          "components": [
            {
              "name": "chain_id",
              "type": "uint128",
              "internalType": "uint128"
            },
            {
              "name": "amount_token",
              "type": "uint32",
              "internalType": "uint32"
            },
            {
              "name": "amount_pool",
              "type": "uint32",
              "internalType": "uint32"
            },
            {
              "name": "owner",
              "type": "address",
              "internalType": "address"
            },
            {
              "name": "merkle_root",
              "type": "uint256",
              "internalType": "uint256"
            },
            {
              "name": "rid",
              "type": "uint256",
              "internalType": "uint256"
            },
            {
              "name": "verifier",
              "type": "uint256",
              "internalType": "uint256"
            }
          ]
        }
      ],
      "stateMutability": "view"
    },
    {
      "type": "function",
      "name": "getRoleAdmin",
      "inputs": [
        {
          "name": "role",
          "type": "bytes32",
          "internalType": "bytes32"
        }
      ],
      "outputs": [
        {
          "name": "",
          "type": "bytes32",
          "internalType": "bytes32"
        }
      ],
      "stateMutability": "view"
    },
    {
      "type": "function",
      "name": "grantRole",
      "inputs": [
        {
          "name": "role",
          "type": "bytes32",
          "internalType": "bytes32"
        },
        {
          "name": "account",
          "type": "address",
          "internalType": "address"
        }
      ],
      "outputs": [],
      "stateMutability": "nonpayable"
    },
    {
      "type": "function",
      "name": "hasRole",
      "inputs": [
        {
          "name": "role",
          "type": "bytes32",
          "internalType": "bytes32"
        },
        {
          "name": "account",
          "type": "address",
          "internalType": "address"
        }
      ],
      "outputs": [
        {
          "name": "",
          "type": "bool",
          "internalType": "bool"
        }
      ],
      "stateMutability": "view"
    },
    {
      "type": "function",
      "name": "merkle_root",
      "inputs": [],
      "outputs": [
        {
          "name": "",
          "type": "uint256",
          "internalType": "uint256"
        }
      ],
      "stateMutability": "view"
    },
    {
      "type": "function",
      "name": "modifyToken",
      "inputs": [
        {
          "name": "index",
          "type": "uint32",
          "internalType": "uint32"
        },
        {
          "name": "token",
          "type": "uint256",
          "internalType": "uint256"
        }
      ],
      "outputs": [],
      "stateMutability": "nonpayable"
    },
    {
      "type": "function",
      "name": "renounceRole",
      "inputs": [
        {
          "name": "role",
          "type": "bytes32",
          "internalType": "bytes32"
        },
        {
          "name": "callerConfirmation",
          "type": "address",
          "internalType": "address"
        }
      ],
      "outputs": [],
      "stateMutability": "nonpayable"
    },
    {
      "type": "function",
      "name": "revokeRole",
      "inputs": [
        {
          "name": "role",
          "type": "bytes32",
          "internalType": "bytes32"
        },
        {
          "name": "account",
          "type": "address",
          "internalType": "address"
        }
      ],
      "outputs": [],
      "stateMutability": "nonpayable"
    },
    {
      "type": "function",
      "name": "rid",
      "inputs": [],
      "outputs": [
        {
          "name": "",
          "type": "uint256",
          "internalType": "uint256"
        }
      ],
      "stateMutability": "view"
    },
    {
      "type": "function",
      "name": "setMerkle",
      "inputs": [
        {
          "name": "new_root",
          "type": "uint256",
          "internalType": "uint256"
        }
      ],
      "outputs": [],
      "stateMutability": "nonpayable"
    },
    {
      "type": "function",
      "name": "setOwner",
      "inputs": [
        {
          "name": "new_owner",
          "type": "address",
          "internalType": "address"
        }
      ],
      "outputs": [],
      "stateMutability": "nonpayable"
    },
    {
      "type": "function",
      "name": "setSettler",
      "inputs": [
        {
          "name": "settler",
          "type": "address",
          "internalType": "address"
        }
      ],
      "outputs": [],
      "stateMutability": "nonpayable"
    },
    {
      "type": "function",
      "name": "setVerifier",
      "inputs": [
        {
          "name": "vaddr",
          "type": "address",
          "internalType": "address"
        }
      ],
      "outputs": [],
      "stateMutability": "nonpayable"
    },
    {
      "type": "function",
      "name": "setVerifierImageCommitments",
      "inputs": [
        {
          "name": "commitments",
          "type": "uint256[3]",
          "internalType": "uint256[3]"
        }
      ],
      "outputs": [],
      "stateMutability": "nonpayable"
    },
    {
      "type": "function",
      "name": "setWithdrawLimit",
      "inputs": [
        {
          "name": "amount",
          "type": "uint256",
          "internalType": "uint256"
        }
      ],
      "outputs": [],
      "stateMutability": "nonpayable"
    },
    {
      "type": "function",
      "name": "supportsInterface",
      "inputs": [
        {
          "name": "interfaceId",
          "type": "bytes4",
          "internalType": "bytes4"
        }
      ],
      "outputs": [
        {
          "name": "",
          "type": "bool",
          "internalType": "bool"
        }
      ],
      "stateMutability": "view"
    },
    {
      "type": "function",
      "name": "topup",
      "inputs": [
        {
          "name": "tidx",
          "type": "uint128",
          "internalType": "uint128"
        },
        {
          "name": "pid_1",
          "type": "uint64",
          "internalType": "uint64"
        },
        {
          "name": "pid_2",
          "type": "uint64",
          "internalType": "uint64"
        },
        {
          "name": "amount",
          "type": "uint128",
          "internalType": "uint128"
        }
      ],
      "outputs": [],
      "stateMutability": "nonpayable"
    },
    {
      "type": "function",
      "name": "transactions",
      "inputs": [
        {
          "name": "",
          "type": "uint256",
          "internalType": "uint256"
        }
      ],
      "outputs": [
        {
          "name": "",
          "type": "address",
          "internalType": "contract Transaction"
        }
      ],
      "stateMutability": "view"
    },
    {
      "type": "function",
      "name": "verifier",
      "inputs": [],
      "outputs": [
        {
          "name": "",
          "type": "address",
          "internalType": "contract DelphinusVerifier"
        }
      ],
      "stateMutability": "view"
    },
    {
      "type": "function",
      "name": "verify",
      "inputs": [
        {
          "name": "tx_data",
          "type": "bytes",
          "internalType": "bytes"
        },
        {
          "name": "proof",
          "type": "uint256[]",
          "internalType": "uint256[]"
        },
        {
          "name": "verify_instance",
          "type": "uint256[]",
          "internalType": "uint256[]"
        },
        {
          "name": "aux",
          "type": "uint256[]",
          "internalType": "uint256[]"
        },
        {
          "name": "instances",
          "type": "uint256[][]",
          "internalType": "uint256[][]"
        }
      ],
      "outputs": [],
      "stateMutability": "nonpayable"
    },
    {
      "type": "function",
      "name": "withdrawLimit",
      "inputs": [],
      "outputs": [
        {
          "name": "",
          "type": "uint256",
          "internalType": "uint256"
        }
      ],
      "stateMutability": "view"
    },
    {
      "type": "function",
      "name": "zk_image_commitments",
      "inputs": [
        {
          "name": "",
          "type": "uint256",
          "internalType": "uint256"
        }
      ],
      "outputs": [
        {
          "name": "",
          "type": "uint256",
          "internalType": "uint256"
        }
      ],
      "stateMutability": "view"
    },
    {
      "type": "event",
      "name": "Initialized",
      "inputs": [
        {
          "name": "version",
          "type": "uint64",
          "indexed": false,
          "internalType": "uint64"
        }
      ],
      "anonymous": false
    },
    {
      "type": "event",
      "name": "RoleAdminChanged",
      "inputs": [
        {
          "name": "role",
          "type": "bytes32",
          "indexed": true,
          "internalType": "bytes32"
        },
        {
          "name": "previousAdminRole",
          "type": "bytes32",
          "indexed": true,
          "internalType": "bytes32"
        },
        {
          "name": "newAdminRole",
          "type": "bytes32",
          "indexed": true,
          "internalType": "bytes32"
        }
      ],
      "anonymous": false
    },
    {
      "type": "event",
      "name": "RoleGranted",
      "inputs": [
        {
          "name": "role",
          "type": "bytes32",
          "indexed": true,
          "internalType": "bytes32"
        },
        {
          "name": "account",
          "type": "address",
          "indexed": true,
          "internalType": "address"
        },
        {
          "name": "sender",
          "type": "address",
          "indexed": true,
          "internalType": "address"
        }
      ],
      "anonymous": false
    },
    {
      "type": "event",
      "name": "RoleRevoked",
      "inputs": [
        {
          "name": "role",
          "type": "bytes32",
          "indexed": true,
          "internalType": "bytes32"
        },
        {
          "name": "account",
          "type": "address",
          "indexed": true,
          "internalType": "address"
        },
        {
          "name": "sender",
          "type": "address",
          "indexed": true,
          "internalType": "address"
        }
      ],
      "anonymous": false
    },
    {
      "type": "event",
      "name": "Settled",
      "inputs": [
        {
          "name": "sender",
          "type": "address",
          "indexed": false,
          "internalType": "address"
        },
        {
          "name": "merkle_root",
          "type": "uint256",
          "indexed": false,
          "internalType": "uint256"
        },
        {
          "name": "new_merkle_root",
          "type": "uint256",
          "indexed": false,
          "internalType": "uint256"
        },
        {
          "name": "rid",
          "type": "uint256",
          "indexed": false,
          "internalType": "uint256"
        },
        {
          "name": "sideEffectCalled",
          "type": "uint256",
          "indexed": false,
          "internalType": "uint256"
        }
      ],
      "anonymous": false
    },
    {
      "type": "event",
      "name": "TopUp",
      "inputs": [
        {
          "name": "l1token",
          "type": "uint256",
          "indexed": false,
          "internalType": "uint256"
        },
        {
          "name": "account",
          "type": "address",
          "indexed": false,
          "internalType": "address"
        },
        {
          "name": "pid_1",
          "type": "uint64",
          "indexed": false,
          "internalType": "uint64"
        },
        {
          "name": "pid_2",
          "type": "uint64",
          "indexed": false,
          "internalType": "uint64"
        },
        {
          "name": "amount",
          "type": "uint256",
          "indexed": false,
          "internalType": "uint256"
        }
      ],
      "anonymous": false
    },
    {
      "type": "event",
      "name": "WithDraw",
      "inputs": [
        {
          "name": "l1token",
          "type": "address",
          "indexed": false,
          "internalType": "address"
        },
        {
          "name": "l1account",
          "type": "address",
          "indexed": false,
          "internalType": "address"
        },
        {
          "name": "amount",
          "type": "uint256",
          "indexed": false,
          "internalType": "uint256"
        }
      ],
      "anonymous": false
    },
    {
      "type": "error",
      "name": "AccessControlBadConfirmation",
      "inputs": []
    },
    {
      "type": "error",
      "name": "AccessControlUnauthorizedAccount",
      "inputs": [
        {
          "name": "account",
          "type": "address",
          "internalType": "address"
        },
        {
          "name": "neededRole",
          "type": "bytes32",
          "internalType": "bytes32"
        }
      ]
    },
    {
      "type": "error",
      "name": "InvalidInitialization",
      "inputs": []
    },
    {
      "type": "error",
      "name": "NotInitializing",
      "inputs": []
    },
    {
      "type": "error",
      "name": "ReentrancyGuardReentrantCall",
      "inputs": []
    }
  ],
  "bytecode": "0x6080604052600b80546001600160801b0319166103841790553480156200002557600080fd5b506040516200290a3803806200290a833981016040819052620000489162000085565b600380546001600160801b03191663ffffffff90931692909217909155600480546001600160a01b03191633179055600e556000600f55620000be565b600080604083850312156200009957600080fd5b825163ffffffff81168114620000ae57600080fd5b6020939093015192949293505050565b61283c80620000ce6000396000f3fe608060405234801561001057600080fd5b50600436106101215760003560e01c80636e6de18d116100ad578063baa1939d11610071578063baa1939d146103c6578063bb10437e146103d9578063bfe7a193146103ec578063ed70554d14610420578063f004afba1461043357600080fd5b80636e6de18d146103655780636ff97f1d14610378578063838436471461038d5780638ee66926146103a05780639ace38c2146103b357600080fd5b80632b7ac3f3116100f45780632b7ac3f3146102de5780633ab47626146103095780634091f6ae1461032a5780634e5ca59e1461033f5780635437988d1461035257600080fd5b8063077dcf9f146101265780631246ea561461015f578063179d375c14610275578063251727b71461029d575b600080fd5b61014a610134366004611f5d565b6003546001600160801b031660a09190911c1490565b60405190151581526020015b60405180910390f35b6102076040805160e081018252600080825260208201819052918101829052606081018290526080810182905260a0810182905260c0810191909152506040805160e0810182526003546001600160801b038116825263ffffffff600160801b820481166020840152600160a01b90910416918101919091526004546001600160a01b039081166060830152600e546080830152600f5460a08301526002541660c082015290565b6040805182516001600160801b0316815260208084015163ffffffff908116918301919091528383015116918101919091526060808301516001600160a01b0316908201526080808301519082015260a0808301519082015260c0918201519181019190915260e001610156565b610288610283366004611f5d565b610446565b60405163ffffffff9091168152602001610156565b6102c66102ab366004611f92565b600a602052600090815260409020546001600160801b031681565b6040516001600160801b039091168152602001610156565b6002546102f1906001600160a01b031681565b6040516001600160a01b039091168152602001610156565b61031c610317366004611ff6565b61054c565b604051908152602001610156565b61033d610338366004612059565b6106a6565b005b61031c61034d36600461209a565b61084e565b61033d610360366004611f92565b6108ed565b61033d6103733660046120d1565b610917565b610380610994565b60405161015691906120ec565b61031c61039b366004611f92565b6109f2565b6102f16103ae366004612131565b610a18565b6102f16103c1366004611f5d565b610a70565b61033d6103d4366004612059565b610a9a565b61033d6103e73660046121b1565b610c7a565b6102c66103fa3660046122b3565b60096020908152600092835260408084209091529082529020546001600160801b031681565b61031c61042e366004611f5d565b611273565b61033d610441366004612059565b611294565b60006104506114f0565b60008054604080516020810190915284815260018083018455928052517f290decd9548b62a8d60345a988386fc84ba6bc95484008f6362f93160ef3e5638201559061049d9082906122f3565b6003805463ffffffff92909216600160801b0263ffffffff60801b1990921691909117905560008381526008602052604090205460ff16156105265760405162461bcd60e51b815260206004820152601d60248201527f416464546f6b656e3a20546f6b656e20416c726561647920457869737400000060448201526064015b60405180910390fd5b8215610546576000838152600860205260409020805460ff191660011790555b92915050565b600080805b8381101561069d5760006105a987878080601f0160208091040260200160405190810160405280939291908181526020018383808284376000920191909152506105a2925060509150869050612317565b600861154c565b60015490915060ff8216106105d05760405162461bcd60e51b815260040161051d9061232e565b60ff8082166000908152600d6020526040902054161561068a5760006105f582610a18565b905060006001600160a01b038216634ab51c038a8a610615605089612317565b6040518463ffffffff1660e01b81526004016106339392919061235d565b600060405180830381865afa158015610650573d6000803e3d6000fd5b505050506040513d6000823e601f3d908101601f1916820160405261067891908101906123ac565b905060019450610687816115c8565b50505b50806106958161246a565b915050610551565b50949350505050565b60006106b1836117b6565b6003549091506001600160801b031660a082901c146106e25760405162461bcd60e51b815260040161051d90612483565b6001600160a01b0381166000908152600960209081526040808320338452909152902054819081906001600160801b039081169085168110156107375760405162461bcd60e51b815260040161051d906124ba565b6001600160a01b0383166000908152600960209081526040808320338452909152812080548792906107739084906001600160801b03166124e8565b82546101009290920a6001600160801b038181021990931691831602179091556001600160a01b0385166000908152600a60205260408120805489945090926107be918591166124e8565b92506101000a8154816001600160801b0302191690836001600160801b031602179055506107f68233876001600160801b031661184e565b7f04a4cf4c467491198265a0003e5875c0772cef48f1813c5dba7b12da38bd5948610820846109f2565b604080519182523360208301526001600160801b0388169082015260600160405180910390a1505050505050565b60006108586114f0565b60015460ff811061087b5760405162461bcd60e51b815260040161051d9061232e565b6001805480820182556000919091527fb10e2d527612073b26eecdfd717e6a320cf44b4afac2b0732d9fcbe2b7fa0cf60180546001600160a01b0319166001600160a01b03861617905582156108e6576000818152600d60205260409020805460ff19168415151790555b9392505050565b6108f56114f0565b600280546001600160a01b0319166001600160a01b0392909216919091179055565b61091f6114f0565b6103e8816001600160801b031611156109695760405162461bcd60e51b815260206004820152600c60248201526b57726f6e67205f726174696f60a01b604482015260640161051d565b600b80546fffffffffffffffffffffffffffffffff19166001600160801b0392909216919091179055565b60606000805480602002602001604051908101604052809291908181526020016000905b828210156109e9576000848152602090819020604080518084019091529084015481528252600190920191016109b8565b50505050905090565b6003546000906105469060a01b6001600160a01b0319166001600160a01b038416612508565b60015460009060ff831610610a3f5760405162461bcd60e51b815260040161051d9061232e565b60018260ff1681548110610a5557610a5561251b565b6000918252602090912001546001600160a01b031692915050565b60018181548110610a8057600080fd5b6000918252602090912001546001600160a01b0316905081565b6000610aa5836117b6565b6003549091506001600160801b031660a082901c14610ad65760405162461bcd60e51b815260040161051d90612483565b6040516370a0823160e01b8152336004820152819081906000906001600160a01b038316906370a0823190602401602060405180830381865afa158015610b21573d6000803e3d6000fd5b505050506040513d601f19601f82011682018060405250810190610b459190612531565b9050846001600160801b0316811015610b705760405162461bcd60e51b815260040161051d906124ba565b604051636eb1769f60e11b81523360048201523060248201526000906001600160a01b0384169063dd62ed3e90604401602060405180830381865afa158015610bbd573d6000803e3d6000fd5b505050506040513d601f19601f82011682018060405250810190610be19190612531565b9050856001600160801b0316811015610c0c5760405162461bcd60e51b815260040161051d9061254a565b610c21833330896001600160801b031661194e565b7ff48072c26ccf8eabc8b4a08b1bd58ca12ca92af2f4e166684fff180d46c72236610c4b856109f2565b604080519182523360208301526001600160801b0389169082015260600160405180910390a150505050505050565b600f54813514610ccc5760405162461bcd60e51b815260206004820152601d60248201527f5665726966793a20556e65787065637465642052657175657374204964000000604482015260640161051d565b610cdb60208201356050612317565b8a14610d375760405162461bcd60e51b815260206004820152602560248201527f5665726966793a20496e73756666696369656e742064656c7461206f7065726160448201526474696f6e7360d81b606482015260840161051d565b600060028c8c604051610d4b92919061257a565b602060405180830381855afa158015610d68573d6000803e3d6000fd5b5050506040513d601f19601f82011682018060405250810190610d8b9190612531565b90508383600081610d9e57610d9e61251b565b9050602002810190610db0919061258a565b600b818110610dc157610dc161251b565b90506020020135604085856000818110610ddd57610ddd61251b565b9050602002810190610def919061258a565b600a818110610e0057610e0061251b565b90506020020135901b608086866000818110610e1e57610e1e61251b565b9050602002810190610e30919061258a565b6009818110610e4157610e4161251b565b90506020020135901b60c087876000818110610e5f57610e5f61251b565b9050602002810190610e71919061258a565b6008818110610e8257610e8261251b565b90506020020135901b610e959190612508565b610e9f9190612508565b610ea99190612508565b8114610f015760405162461bcd60e51b815260206004820152602160248201527f496e636f6e7374616e743a20536861206461746120696e636f6e73697374616e6044820152601d60fa1b606482015260840161051d565b83836000818110610f1457610f1461251b565b9050602002810190610f26919061258a565b6003818110610f3757610f3761251b565b90506020020135604085856000818110610f5357610f5361251b565b9050602002810190610f65919061258a565b6002818110610f7657610f7661251b565b90506020020135901b608086866000818110610f9457610f9461251b565b9050602002810190610fa6919061258a565b6001818110610fb757610fb761251b565b90506020020135901b60c087876000818110610fd557610fd561251b565b9050602002810190610fe7919061258a565b6000818110610ff857610ff861251b565b90506020020135901b61100b9190612508565b6110159190612508565b61101f9190612508565b600e541461106f5760405162461bcd60e51b815260206004820181905260248201527f496e636f6e7374616e743a204d65726b6c6520726f6f74206469736d61746368604482015260640161051d565b60025460405163ae022ccd60e01b81526001600160a01b039091169063ae022ccd906110ad908d908d908d908d908d908d908d908d90600401612606565b60006040518083038186803b1580156110c557600080fd5b505afa1580156110d9573d6000803e3d6000fd5b5050505060006110ee8d8d856020013561054c565b90506000858560008181106111055761110561251b565b9050602002810190611117919061258a565b60078181106111285761112861251b565b905060200201356040878760008181106111445761114461251b565b9050602002810190611156919061258a565b60068181106111675761116761251b565b90506020020135901b6080888860008181106111855761118561251b565b9050602002810190611197919061258a565b60058181106111a8576111a861251b565b90506020020135901b60c0898960008181106111c6576111c661251b565b90506020028101906111d8919061258a565b60048181106111e9576111e961251b565b90506020020135901b6111fc9190612508565b6112069190612508565b6112109190612508565b600e819055905061122660208501358535612508565b600f556040805185358152602081018490527fee38081d3dc857c322f60886b009a25e5dd4c879a2df6cc864375bae00ef0734910160405180910390a15050505050505050505050505050565b6000818154811061128357600080fd5b600091825260209091200154905081565b600061129f836117b6565b6003549091506001600160801b031660a082901c146112d05760405162461bcd60e51b815260040161051d90612483565b6040516370a0823160e01b8152336004820152819081906000906001600160a01b038316906370a0823190602401602060405180830381865afa15801561131b573d6000803e3d6000fd5b505050506040513d601f19601f8201168201806040525081019061133f9190612531565b9050846001600160801b031681101561136a5760405162461bcd60e51b815260040161051d906124ba565b604051636eb1769f60e11b81523360048201523060248201526000906001600160a01b0384169063dd62ed3e90604401602060405180830381865afa1580156113b7573d6000803e3d6000fd5b505050506040513d601f19601f820116820180604052508101906113db9190612531565b9050856001600160801b03168110156114065760405162461bcd60e51b815260040161051d9061254a565b6001600160a01b0384166000908152600960209081526040808320338452909152812080548892906114429084906001600160801b03166126e7565b82546101009290920a6001600160801b038181021990931691831602179091556001600160a01b0386166000908152600a6020526040812080548a9450909261148d918591166126e7565b92506101000a8154816001600160801b0302191690836001600160801b031602179055506114c6833330896001600160801b031661194e565b7f02567b2553aeb44e4ddd5d68462774dc3de158cb0f2c2da1740e729b22086aff610c4b856109f2565b6004546001600160a01b0316331461154a5760405162461bcd60e51b815260206004820152601860248201527f417574686f726974793a20526571756972652041646d696e0000000000000000604482015260640161051d565b565b6000611559836020612508565b845110156115a05760405162461bcd60e51b8152602060048201526014602482015273736c6963696e67206f7574206f662072616e676560601b604482015260640161051d565b6020838501810151906115b4908490612707565b6115bf906008612317565b1c949350505050565b60005b81518110156117b25760008282815181106115e8576115e861251b565b60200260200101519050600160ff1681036116b257611608826004612508565b835110156116285760405162461bcd60e51b815260040161051d9061271a565b6116a083611637846001612508565b815181106116475761164761251b565b60200260200101518484600261165d9190612508565b8151811061166d5761166d61251b565b6020026020010151858560036116839190612508565b815181106116935761169361251b565b6020026020010151611a57565b6116ab826004612508565b91506117ac565b8061175a576116c2826004612508565b835110156116e25760405162461bcd60e51b815260040161051d9061271a565b6116a0836116f1846001612508565b815181106117015761170161251b565b6020026020010151848460026117179190612508565b815181106117275761172761251b565b60200260200101518585600361173d9190612508565b8151811061174d5761174d61251b565b6020026020010151611d0b565b60405162461bcd60e51b815260206004820152602160248201527f536964654566666563743a20556e6b6e6f776e53696465456666656374436f646044820152606560f81b606482015260840161051d565b506115cb565b5050565b600354600090600160801b900463ffffffff166001600160801b038316106118205760405162461bcd60e51b815260206004820152601760248201527f4f75744f66426f756e643a20546f6b656e20496e646578000000000000000000604482015260640161051d565b6000826001600160801b03168154811061183c5761183c61251b565b60009182526020909120015492915050565b604080516001600160a01b038481166024830152604480830185905283518084039091018152606490920183526020820180516001600160e01b031663a9059cbb60e01b17905291516000928392908716916118aa919061275b565b6000604051808303816000865af19150503d80600081146118e7576040519150601f19603f3d011682016040523d82523d6000602084013e6118ec565b606091505b5091509150818015611916575080511580611916575080806020019051810190611916919061278a565b6119475760405162461bcd60e51b81526020600482015260026024820152612a2360f11b604482015260640161051d565b5050505050565b604080516001600160a01b0385811660248301528481166044830152606480830185905283518084039091018152608490920183526020820180516001600160e01b03166323b872dd60e01b17905291516000928392908816916119b2919061275b565b6000604051808303816000865af19150503d80600081146119ef576040519150601f19603f3d011682016040523d82523d6000602084013e6119f4565b606091505b5091509150818015611a1e575080511580611a1e575080806020019051810190611a1e919061278a565b611a4f5760405162461bcd60e51b81526020600482015260026024820152612a2360f11b604482015260640161051d565b505050505050565b6000611a62846117b6565b6003549091506001600160801b031660a082901c03611d05578082611a8681611eed565b6001600160a01b038116611adc5760405162461bcd60e51b815260206004820152601c60248201527f576974686472617720746f20746865207a65726f206164647265737300000000604482015260640161051d565b6001600160a01b0382166000908152600a6020526040902054829060016001600160801b039091161115611bf5576001600160a01b0380841660009081526009602090815260408083209386168352929052205460016001600160801b039091161115611b9a576001600160a01b038084166000908152600a602090815260408083205460098352818420948716845293909152902054611b89916001600160801b0390811691166127a7565b611b9390876127db565b9550611bca565b6001600160a01b0383166000908152600a6020526040902054611bc7906001600160801b031660016127a7565b95505b600b546103e890611be4906001600160801b0316886127db565b611bee91906127a7565b9550611c1c565b600b546103e890611c0f906001600160801b0316886127db565b611c1991906127a7565b95505b6040516370a0823160e01b81523060048201526000906001600160a01b038316906370a0823190602401602060405180830381865afa158015611c63573d6000803e3d6000fd5b505050506040513d601f19601f82011682018060405250810190611c879190612531565b9050866001600160801b0316811015611cec5760405162461bcd60e51b815260206004820152602160248201527f496e73756666696369656e742062616c616e636520666f7220776974686472616044820152607760f81b606482015260840161051d565b611d008284896001600160801b031661184e565b505050505b50505050565b6000611d16846117b6565b6003549091506001600160801b031660a082901c14611d475760405162461bcd60e51b815260040161051d90612483565b6040516370a0823160e01b8152336004820152819081906000906001600160a01b038316906370a0823190602401602060405180830381865afa158015611d92573d6000803e3d6000fd5b505050506040513d601f19601f82011682018060405250810190611db69190612531565b9050856001600160801b0316811015611de15760405162461bcd60e51b815260040161051d906124ba565b604051636eb1769f60e11b81523360048201523060248201526000906001600160a01b0384169063dd62ed3e90604401602060405180830381865afa158015611e2e573d6000803e3d6000fd5b505050506040513d601f19601f82011682018060405250810190611e529190612531565b9050866001600160801b0316811015611e7d5760405162461bcd60e51b815260040161051d9061254a565b611e928333308a6001600160801b031661194e565b7f33da4f9b82b3e18a281ca2cabbe2f076925692abb593b7ea3f850009e8ec9770611ebc856109f2565b60408051918252602082018990526001600160801b038a169082015260600160405180910390a15050505050505050565b6040516001600160a01b0382166024820152611f359060440160408051601f198184030181529190526020810180516001600160e01b031663161765e160e11b179052611f38565b50565b611f358160006a636f6e736f6c652e6c6f679050600080835160208501845afa505050565b600060208284031215611f6f57600080fd5b5035919050565b80356001600160a01b0381168114611f8d57600080fd5b919050565b600060208284031215611fa457600080fd5b6108e682611f76565b60008083601f840112611fbf57600080fd5b50813567ffffffffffffffff811115611fd757600080fd5b602083019150836020828501011115611fef57600080fd5b9250929050565b60008060006040848603121561200b57600080fd5b833567ffffffffffffffff81111561202257600080fd5b61202e86828701611fad565b909790965060209590950135949350505050565b80356001600160801b0381168114611f8d57600080fd5b6000806040838503121561206c57600080fd5b61207583612042565b915061208360208401612042565b90509250929050565b8015158114611f3557600080fd5b600080604083850312156120ad57600080fd5b6120b683611f76565b915060208301356120c68161208c565b809150509250929050565b6000602082840312156120e357600080fd5b6108e682612042565b6020808252825182820181905260009190848201906040850190845b818110156121255783515183529284019291840191600101612108565b50909695505050505050565b60006020828403121561214357600080fd5b813560ff811681146108e657600080fd5b60008083601f84011261216657600080fd5b50813567ffffffffffffffff81111561217e57600080fd5b6020830191508360208260051b8501011115611fef57600080fd5b6000604082840312156121ab57600080fd5b50919050565b600080600080600080600080600080600060e08c8e0312156121d257600080fd5b67ffffffffffffffff808d3511156121e957600080fd5b6121f68e8e358f01611fad565b909c509a5060208d013581101561220c57600080fd5b61221c8e60208f01358f01612154565b909a50985060408d013581101561223257600080fd5b6122428e60408f01358f01612154565b909850965060608d013581101561225857600080fd5b6122688e60608f01358f01612154565b909650945060808d013581101561227e57600080fd5b5061228f8d60808e01358e01612154565b90935091506122a18d60a08e01612199565b90509295989b509295989b9093969950565b600080604083850312156122c657600080fd5b6122cf83611f76565b915061208360208401611f76565b634e487b7160e01b600052601160045260246000fd5b63ffffffff818116838216019080821115612310576123106122dd565b5092915050565b8082028115828204841417610546576105466122dd565b6020808252601590820152741516081a5b99195e081bdd5d081bd988189bdd5b99605a1b604082015260600190565b604081528260408201528284606083013760006060848301015260006060601f19601f8601168301019050826020830152949350505050565b634e487b7160e01b600052604160045260246000fd5b600060208083850312156123bf57600080fd5b825167ffffffffffffffff808211156123d757600080fd5b818501915085601f8301126123eb57600080fd5b8151818111156123fd576123fd612396565b8060051b604051601f19603f8301168101818110858211171561242257612422612396565b60405291825284820192508381018501918883111561244057600080fd5b938501935b8285101561245e57845184529385019392850192612445565b98975050505050505050565b60006001820161247c5761247c6122dd565b5060010190565b6020808252601e908201527f746f6b656e206973206e6f742061206c6f63616c2065726320746f6b656e0000604082015260600190565b602080825260149082015273496e73756666696369656e742042616c616e636560601b604082015260600190565b6001600160801b03828116828216039080821115612310576123106122dd565b80820180821115610546576105466122dd565b634e487b7160e01b600052603260045260246000fd5b60006020828403121561254357600080fd5b5051919050565b602080825260169082015275496e73756666696369656e7420416c6c6f77616e636560501b604082015260600190565b8183823760009101908152919050565b6000808335601e198436030181126125a157600080fd5b83018035915067ffffffffffffffff8211156125bc57600080fd5b6020019150600581901b3603821315611fef57600080fd5b81835260006001600160fb1b038311156125ed57600080fd5b8260051b80836020870137939093016020019392505050565b60808152600061261a608083018a8c6125d4565b60208382038185015261262e828a8c6125d4565b9150838203604085015261264382888a6125d4565b84810360608601528581529150808201600586811b840183018860005b898110156126d257868303601f190185528135368c9003601e1901811261268657600080fd5b8b01868101903567ffffffffffffffff8111156126a257600080fd5b80861b36038213156126b357600080fd5b6126be8582846125d4565b968801969450505090850190600101612660565b50909f9e505050505050505050505050505050565b6001600160801b03818116838216019080821115612310576123106122dd565b81810381811115610546576105466122dd565b60208082526021908201527f57697468647261773a20496e73756666696369656e7420617267206e756d62656040820152603960f91b606082015260800190565b6000825160005b8181101561277c5760208186018101518583015201612762565b506000920191825250919050565b60006020828403121561279c57600080fd5b81516108e68161208c565b60006001600160801b03808416806127cf57634e487b7160e01b600052601260045260246000fd5b92169190910492915050565b6001600160801b038181168382160280821691908281146127fe576127fe6122dd565b50509291505056fea26469706673582212209f08f75a2082b9403e5beeba63fe2d348b4fb7588f64ed7feda0927e34dfc39664736f6c63430008140033",
  "linkReferences": {},
  "deployedLinkReferences": {}
}